{
  "_format": "hh-sol-artifact-1",
  "contractName": "GreetingHistory",
  "sourceName": "contracts/GreetingHistory.sol",
  "abi": [
    {
      "anonymous": false,
      "inputs": [
        {
          "indexed": true,
          "internalType": "address",
          "name": "user",
          "type": "address"
        },
        {
          "indexed": false,
          "internalType": "string",
          "name": "message",
          "type": "string"
        },
        {
          "indexed": false,
          "internalType": "uint256",
          "name": "timestamp",
          "type": "uint256"
        }
      ],
      "name": "NewGreeting",
      "type": "event"
    },
    {
      "inputs": [
        {
          "internalType": "address",
          "name": "_user",
          "type": "address"
        }
      ],
      "name": "getGreetings",
      "outputs": [
        {
          "components": [
            {
              "internalType": "string",
              "name": "message",
              "type": "string"
            },
            {
              "internalType": "uint256",
              "name": "timestamp",
              "type": "uint256"
            }
          ],
          "internalType": "struct GreetingHistory.Greeting[]",
          "name": "",
          "type": "tuple[]"
        }
      ],
      "stateMutability": "view",
      "type": "function"
    },
    {
      "inputs": [
        {
          "internalType": "string",
          "name": "_message",
          "type": "string"
        }
      ],
      "name": "setGreeting",
      "outputs": [],
      "stateMutability": "nonpayable",
      "type": "function"
    },
    {
      "inputs": [
        {
          "internalType": "address",
          "name": "",
          "type": "address"
        },
        {
          "internalType": "uint256",
          "name": "",
          "type": "uint256"
        }
      ],
      "name": "userGreetings",
      "outputs": [
        {
          "internalType": "string",
          "name": "message",
          "type": "string"
        },
        {
          "internalType": "uint256",
          "name": "timestamp",
          "type": "uint256"
        }
      ],
      "stateMutability": "view",
      "type": "function"
    }
  ],
  "bytecode": "0x6080604052348015600f57600080fd5b50610ba68061001f6000396000f3fe608060405234801561001057600080fd5b50600436106100415760003560e01c8063061699b914610046578063a413686214610076578063de4c27c414610092575b600080fd5b610060600480360381019061005b9190610428565b6100c3565b60405161006d91906105fd565b60405180910390f35b610090600480360381019061008b9190610754565b6101fc565b005b6100ac60048036038101906100a791906107c9565b6102ed565b6040516100ba929190610862565b60405180910390f35b60606000808373ffffffffffffffffffffffffffffffffffffffff1673ffffffffffffffffffffffffffffffffffffffff168152602001908152602001600020805480602002602001604051908101604052809291908181526020016000905b828210156101f15783829060005260206000209060020201604051806040016040529081600082018054610156906108c1565b80601f0160208091040260200160405190810160405280929190818152602001828054610182906108c1565b80156101cf5780601f106101a4576101008083540402835291602001916101cf565b820191906000526020600020905b8154815290600101906020018083116101b257829003601f168201915b5050505050815260200160018201548152505081526020019060010190610123565b505050509050919050565b6000803373ffffffffffffffffffffffffffffffffffffffff1673ffffffffffffffffffffffffffffffffffffffff1681526020019081526020016000206040518060400160405280838152602001428152509080600181540180825580915050600190039060005260206000209060020201600090919091909150600082015181600001908161028d9190610a9e565b506020820151816001015550503373ffffffffffffffffffffffffffffffffffffffff167fd2126862fc0a783afc07fab9d2271670deb2dbdc138773a4f304b573e17d81fa82426040516102e2929190610862565b60405180910390a250565b6000602052816000526040600020818154811061030957600080fd5b90600052602060002090600202016000915091505080600001805461032d906108c1565b80601f0160208091040260200160405190810160405280929190818152602001828054610359906108c1565b80156103a65780601f1061037b576101008083540402835291602001916103a6565b820191906000526020600020905b81548152906001019060200180831161038957829003601f168201915b5050505050908060010154905082565b6000604051905090565b600080fd5b600080fd5b600073ffffffffffffffffffffffffffffffffffffffff82169050919050565b60006103f5826103ca565b9050919050565b610405816103ea565b811461041057600080fd5b50565b600081359050610422816103fc565b92915050565b60006020828403121561043e5761043d6103c0565b5b600061044c84828501610413565b91505092915050565b600081519050919050565b600082825260208201905092915050565b6000819050602082019050919050565b600081519050919050565b600082825260208201905092915050565b60005b838110156104bb5780820151818401526020810190506104a0565b60008484015250505050565b6000601f19601f8301169050919050565b60006104e382610481565b6104ed818561048c565b93506104fd81856020860161049d565b610506816104c7565b840191505092915050565b6000819050919050565b61052481610511565b82525050565b6000604083016000830151848203600086015261054782826104d8565b915050602083015161055c602086018261051b565b508091505092915050565b6000610573838361052a565b905092915050565b6000602082019050919050565b600061059382610455565b61059d8185610460565b9350836020820285016105af85610471565b8060005b858110156105eb57848403895281516105cc8582610567565b94506105d78361057b565b925060208a019950506001810190506105b3565b50829750879550505050505092915050565b600060208201905081810360008301526106178184610588565b905092915050565b600080fd5b600080fd5b7f4e487b7100000000000000000000000000000000000000000000000000000000600052604160045260246000fd5b610661826104c7565b810181811067ffffffffffffffff821117156106805761067f610629565b5b80604052505050565b60006106936103b6565b905061069f8282610658565b919050565b600067ffffffffffffffff8211156106bf576106be610629565b5b6106c8826104c7565b9050602081019050919050565b82818337600083830152505050565b60006106f76106f2846106a4565b610689565b90508281526020810184848401111561071357610712610624565b5b61071e8482856106d5565b509392505050565b600082601f83011261073b5761073a61061f565b5b813561074b8482602086016106e4565b91505092915050565b60006020828403121561076a576107696103c0565b5b600082013567ffffffffffffffff811115610788576107876103c5565b5b61079484828501610726565b91505092915050565b6107a681610511565b81146107b157600080fd5b50565b6000813590506107c38161079d565b92915050565b600080604083850312156107e0576107df6103c0565b5b60006107ee85828601610413565b92505060206107ff858286016107b4565b9150509250929050565b600082825260208201905092915050565b600061082582610481565b61082f8185610809565b935061083f81856020860161049d565b610848816104c7565b840191505092915050565b61085c81610511565b82525050565b6000604082019050818103600083015261087c818561081a565b905061088b6020830184610853565b9392505050565b7f4e487b7100000000000000000000000000000000000000000000000000000000600052602260045260246000fd5b600060028204905060018216806108d957607f821691505b6020821081036108ec576108eb610892565b5b50919050565b60008190508160005260206000209050919050565b60006020601f8301049050919050565b600082821b905092915050565b6000600883026109547fffffffffffffffffffffffffffffffffffffffffffffffffffffffffffffffff82610917565b61095e8683610917565b95508019841693508086168417925050509392505050565b6000819050919050565b600061099b61099661099184610511565b610976565b610511565b9050919050565b6000819050919050565b6109b583610980565b6109c96109c1826109a2565b848454610924565b825550505050565b600090565b6109de6109d1565b6109e98184846109ac565b505050565b5b81811015610a0d57610a026000826109d6565b6001810190506109ef565b5050565b601f821115610a5257610a23816108f2565b610a2c84610907565b81016020851015610a3b578190505b610a4f610a4785610907565b8301826109ee565b50505b505050565b600082821c905092915050565b6000610a7560001984600802610a57565b1980831691505092915050565b6000610a8e8383610a64565b9150826002028217905092915050565b610aa782610481565b67ffffffffffffffff811115610ac057610abf610629565b5b610aca82546108c1565b610ad5828285610a11565b600060209050601f831160018114610b085760008415610af6578287015190505b610b008582610a82565b865550610b68565b601f198416610b16866108f2565b60005b82811015610b3e57848901518255600182019150602085019450602081019050610b19565b86831015610b5b5784890151610b57601f891682610a64565b8355505b6001600288020188555050505b50505050505056fea26469706673582212200d9f84c565aed3b9dd8f0360074c8380cffe1edd1262b8f42447fcbc6e41bd5f64736f6c634300081c0033",
  "linkReferences": {},
  "deployedLinkReferences": {}
}