{
  "_format": "hh-sol-artifact-1",
  "contractName": "HelloBlockchain",
  "sourceName": "contracts/HelloBlockchain.sol",
  "abi": [
    {
      "inputs": [],
      "stateMutability": "nonpayable",
      "type": "constructor"
    },
    {
      "anonymous": false,
      "inputs": [
        {
          "indexed": true,
          "internalType": "address",
          "name": "user",
          "type": "address"
        },
        {
          "indexed": false,
          "internalType": "string",
          "name": "message",
          "type": "string"
        },
        {
          "indexed": false,
          "internalType": "uint256",
          "name": "timestamp",
          "type": "uint256"
        }
      ],
      "name": "NewGreeting",
      "type": "event"
    },
    {
      "inputs": [],
      "name": "getGreeting",
      "outputs": [
        {
          "internalType": "string",
          "name": "",
          "type": "string"
        }
      ],
      "stateMutability": "view",
      "type": "function"
    },
    {
      "inputs": [],
      "name": "getTotalGreetings",
      "outputs": [
        {
          "internalType": "uint256",
          "name": "",
          "type": "uint256"
        }
      ],
      "stateMutability": "view",
      "type": "function"
    },
    {
      "inputs": [
        {
          "internalType": "address",
          "name": "_user",
          "type": "address"
        }
      ],
      "name": "getUserLastUpdatedGreeting",
      "outputs": [
        {
          "internalType": "string",
          "name": "",
          "type": "string"
        }
      ],
      "stateMutability": "view",
      "type": "function"
    },
    {
      "inputs": [],
      "name": "greeting",
      "outputs": [
        {
          "internalType": "string",
          "name": "",
          "type": "string"
        }
      ],
      "stateMutability": "view",
      "type": "function"
    },
    {
      "inputs": [
        {
          "internalType": "string",
          "name": "_newGreeting",
          "type": "string"
        }
      ],
      "name": "setGreeting",
      "outputs": [],
      "stateMutability": "nonpayable",
      "type": "function"
    },
    {
      "inputs": [
        {
          "internalType": "address",
          "name": "",
          "type": "address"
        }
      ],
      "name": "userLastGreeting",
      "outputs": [
        {
          "internalType": "string",
          "name": "",
          "type": "string"
        }
      ],
      "stateMutability": "view",
      "type": "function"
    },
    {
      "inputs": [],
      "name": "userLastGreetingMapSize",
      "outputs": [
        {
          "internalType": "uint256",
          "name": "",
          "type": "uint256"
        }
      ],
      "stateMutability": "view",
      "type": "function"
    }
  ],
  "bytecode": "0x608060405234801561001057600080fd5b506040518060400160405280601181526020017f48656c6c6f20426c6f636b636861696e210000000000000000000000000000008152506000908161005591906102ab565b5061037d565b600081519050919050565b7f4e487b7100000000000000000000000000000000000000000000000000000000600052604160045260246000fd5b7f4e487b7100000000000000000000000000000000000000000000000000000000600052602260045260246000fd5b600060028204905060018216806100dc57607f821691505b6020821081036100ef576100ee610095565b5b50919050565b60008190508160005260206000209050919050565b60006020601f8301049050919050565b600082821b905092915050565b6000600883026101577fffffffffffffffffffffffffffffffffffffffffffffffffffffffffffffffff8261011a565b610161868361011a565b95508019841693508086168417925050509392505050565b6000819050919050565b6000819050919050565b60006101a86101a361019e84610179565b610183565b610179565b9050919050565b6000819050919050565b6101c28361018d565b6101d66101ce826101af565b848454610127565b825550505050565b600090565b6101eb6101de565b6101f68184846101b9565b505050565b5b8181101561021a5761020f6000826101e3565b6001810190506101fc565b5050565b601f82111561025f57610230816100f5565b6102398461010a565b81016020851015610248578190505b61025c6102548561010a565b8301826101fb565b50505b505050565b600082821c905092915050565b600061028260001984600802610264565b1980831691505092915050565b600061029b8383610271565b9150826002028217905092915050565b6102b48261005b565b67ffffffffffffffff8111156102cd576102cc610066565b5b6102d782546100c4565b6102e282828561021e565b600060209050601f8311600181146103155760008415610303578287015190505b61030d858261028f565b865550610375565b601f198416610323866100f5565b60005b8281101561034b57848901518255600182019150602085019450602081019050610326565b868310156103685784890151610364601f891682610271565b8355505b6001600288020188555050505b505050505050565b610b9d8061038c6000396000f3fe608060405234801561001057600080fd5b506004361061007d5760003560e01c8063a41368621161005b578063a4136862146100ee578063d38009b01461010a578063ef690cc01461013a578063fe50cc72146101585761007d565b80631e98e67014610082578063797d646a146100a05780638490baec146100d0575b600080fd5b61008a610176565b60405161009791906104f8565b60405180910390f35b6100ba60048036038101906100b59190610585565b61017c565b6040516100c79190610642565b60405180910390f35b6100d861021c565b6040516100e591906104f8565b60405180910390f35b61010860048036038101906101039190610799565b610226565b005b610124600480360381019061011f9190610585565b6102ee565b6040516101319190610642565b60405180910390f35b6101426103bf565b60405161014f9190610642565b60405180910390f35b61016061044d565b60405161016d9190610642565b60405180910390f35b60025481565b6001602052806000526040600020600091509050805461019b90610811565b80601f01602080910402602001604051908101604052809291908181526020018280546101c790610811565b80156102145780601f106101e957610100808354040283529160200191610214565b820191906000526020600020905b8154815290600101906020018083116101f757829003601f168201915b505050505081565b6000600254905090565b806000908161023591906109ee565b5080600160003373ffffffffffffffffffffffffffffffffffffffff1673ffffffffffffffffffffffffffffffffffffffff168152602001908152602001600020908161028291906109ee565b506002600081548092919061029690610aef565b91905055503373ffffffffffffffffffffffffffffffffffffffff167fd2126862fc0a783afc07fab9d2271670deb2dbdc138773a4f304b573e17d81fa82426040516102e3929190610b37565b60405180910390a250565b6060600160008373ffffffffffffffffffffffffffffffffffffffff1673ffffffffffffffffffffffffffffffffffffffff168152602001908152602001600020805461033a90610811565b80601f016020809104026020016040519081016040528092919081815260200182805461036690610811565b80156103b35780601f10610388576101008083540402835291602001916103b3565b820191906000526020600020905b81548152906001019060200180831161039657829003601f168201915b50505050509050919050565b600080546103cc90610811565b80601f01602080910402602001604051908101604052809291908181526020018280546103f890610811565b80156104455780601f1061041a57610100808354040283529160200191610445565b820191906000526020600020905b81548152906001019060200180831161042857829003601f168201915b505050505081565b60606000805461045c90610811565b80601f016020809104026020016040519081016040528092919081815260200182805461048890610811565b80156104d55780601f106104aa576101008083540402835291602001916104d5565b820191906000526020600020905b8154815290600101906020018083116104b857829003601f168201915b5050505050905090565b6000819050919050565b6104f2816104df565b82525050565b600060208201905061050d60008301846104e9565b92915050565b6000604051905090565b600080fd5b600080fd5b600073ffffffffffffffffffffffffffffffffffffffff82169050919050565b600061055282610527565b9050919050565b61056281610547565b811461056d57600080fd5b50565b60008135905061057f81610559565b92915050565b60006020828403121561059b5761059a61051d565b5b60006105a984828501610570565b91505092915050565b600081519050919050565b600082825260208201905092915050565b60005b838110156105ec5780820151818401526020810190506105d1565b60008484015250505050565b6000601f19601f8301169050919050565b6000610614826105b2565b61061e81856105bd565b935061062e8185602086016105ce565b610637816105f8565b840191505092915050565b6000602082019050818103600083015261065c8184610609565b905092915050565b600080fd5b600080fd5b7f4e487b7100000000000000000000000000000000000000000000000000000000600052604160045260246000fd5b6106a6826105f8565b810181811067ffffffffffffffff821117156106c5576106c461066e565b5b80604052505050565b60006106d8610513565b90506106e4828261069d565b919050565b600067ffffffffffffffff8211156107045761070361066e565b5b61070d826105f8565b9050602081019050919050565b82818337600083830152505050565b600061073c610737846106e9565b6106ce565b90508281526020810184848401111561075857610757610669565b5b61076384828561071a565b509392505050565b600082601f8301126107805761077f610664565b5b8135610790848260208601610729565b91505092915050565b6000602082840312156107af576107ae61051d565b5b600082013567ffffffffffffffff8111156107cd576107cc610522565b5b6107d98482850161076b565b91505092915050565b7f4e487b7100000000000000000000000000000000000000000000000000000000600052602260045260246000fd5b6000600282049050600182168061082957607f821691505b60208210810361083c5761083b6107e2565b5b50919050565b60008190508160005260206000209050919050565b60006020601f8301049050919050565b600082821b905092915050565b6000600883026108a47fffffffffffffffffffffffffffffffffffffffffffffffffffffffffffffffff82610867565b6108ae8683610867565b95508019841693508086168417925050509392505050565b6000819050919050565b60006108eb6108e66108e1846104df565b6108c6565b6104df565b9050919050565b6000819050919050565b610905836108d0565b610919610911826108f2565b848454610874565b825550505050565b600090565b61092e610921565b6109398184846108fc565b505050565b5b8181101561095d57610952600082610926565b60018101905061093f565b5050565b601f8211156109a25761097381610842565b61097c84610857565b8101602085101561098b578190505b61099f61099785610857565b83018261093e565b50505b505050565b600082821c905092915050565b60006109c5600019846008026109a7565b1980831691505092915050565b60006109de83836109b4565b9150826002028217905092915050565b6109f7826105b2565b67ffffffffffffffff811115610a1057610a0f61066e565b5b610a1a8254610811565b610a25828285610961565b600060209050601f831160018114610a585760008415610a46578287015190505b610a5085826109d2565b865550610ab8565b601f198416610a6686610842565b60005b82811015610a8e57848901518255600182019150602085019450602081019050610a69565b86831015610aab5784890151610aa7601f8916826109b4565b8355505b6001600288020188555050505b505050505050565b7f4e487b7100000000000000000000000000000000000000000000000000000000600052601160045260246000fd5b6000610afa826104df565b91507fffffffffffffffffffffffffffffffffffffffffffffffffffffffffffffffff8203610b2c57610b2b610ac0565b5b600182019050919050565b60006040820190508181036000830152610b518185610609565b9050610b6060208301846104e9565b939250505056fea2646970667358221220058ee6446002c4a6a23ac862e9888c6326ce8a568d2d66ccb3349ba234c6fff764736f6c634300081c0033",
  "linkReferences": {},
  "deployedLinkReferences": {}
}